S00F00005765656B3242322E73726563E3
S113000045C0000061C00000B0C000005CC000003A
S11300105AC0000058C0000056C0000054C0000080
S113002052C0000050C000004EC000004CC0000090
S11300304AC0000048C0000046C0000044C00000A0
S113004042C0000040C000003EC000003CC00000B0
S11300503AC0000038C0000036C0000034C00000C0
S113006032C0000030C000002EC000002CC00000D0
S11300702AC0000028C0000026C0000024C00000E0
S113008022C0000020C000001EC0000011241FBEBA
S1130090CFEFD0E1DEBFCDBF11E0A0E0B1E0EAE2F6
S11300A0F2E000E00BBF02C007900D92A230B1074E
S11300B0D9F721E0A2E0B1E001C01D92A430B2075B
S11300C0E1F7A3D0B0C09CCF1F920F920FB60F924E
S11300D011248F939F9380910201909103010197C2
S11300E039F0809100019091010181389105A4F0CB
S11300F08091000190910101880F991F9093010153
S11301008093000180910001909101018BBB1092BA
S113011003011092020122C0809102019091030117
S1130120892B39F08091000190910101181619066C
S1130130ACF0809100019091010195958795909381
S113014001018093000180910001909101018BBB1A
S113015081E090E090930301809302019F918F913D
S11301600F900FBE0F901F9018951F920F920FB60D
S11301700F9211248F939F9380910001909101011C
S11301808038910534F08091020190910301892B0C
S1130190B1F48091000190910101880F991F90930F
S11301A001018093000180910001909101018BBBBA
S11301B081E090E090930301809302011FC080913D
S11301C0000190910101029734F480910201909111
S11301D00301019799F48091000190910101959593
S11301E08795909301018093000180910001909183
S11301F001018BBB10920301109202019F918F9118
S11302000F900FBE0F901F90189580EF81BB8FEF5A
S11302108ABBEAE6F0E080818B60808389B78360E3
S10D022089BF7894FFCFF894FFCF54
S105022A0100CD
S9030000FC
