S00F00005765656B3242332E73726563E2
S113000045C000007EC00000BAC000005CC0000013
S11300105AC0000058C0000056C0000054C0000080
S113002052C0000050C000004EC000004CC0000090
S11300304AC0000048C0000046C0000044C00000A0
S113004042C0000040C000003EC000003CC00000B0
S11300503AC0000038C0000036C0000034C00000C0
S113006032C0000030C000002EC000002CC00000D0
S11300702AC0000028C0000026C0000024C00000E0
S113008022C0000020C000001EC0000011241FBEBA
S1130090CFEFD0E1DEBFCDBF11E0A0E0B1E0E2E3FD
S11300A0F2E000E00BBF02C007900D92A031B1074F
S11300B0D9F721E0A0E1B1E001C01D92A231B2075D
S11300C0E1F799D0B4C09CCF181619066CF420E05F
S11300D030E0E9EFF0E03197F1F700C000002F5F66
S11300E03F4F28173907A9F70895803191051CF06F
S11300F089E785BB0895FC01E050FF4F808185BBF3
S113010008951F920F920FB60F9211240BB60F92FF
S11301102F933F934F935F936F937F938F939F930B
S1130120AF93BF93EF93FF938091100190911101CE
S1130130409734F08FE090E0909311018093100188
S113014080911001909111019C012F5F3F4F3093DA
S1130150110120931001C9DFFF91EF91BF91AF917D
S11301609F918F917F916F915F914F913F912F91CB
S11301700F900BBE0F900FBE0F901F9018951F92FB
S11301800F920FB60F9211240BB60F922F933F9339
S11301904F935F936F937F938F939F93AF93BF938B
S11301A0EF93FF938091100190911101992324F40E
S11301B0109211011092100180911001909111017F
S11301C09C012150310930931101209310018DDFDE
S11301D0FF91EF91BF91AF919F918F917F916F911B
S11301E05F914F913F912F910F900BBE0F900FBED7
S11301F00F901F9018958FE784BBEAE6F0E08081AA
S11302008F60808389B7836089BF789484EF91E09D
S11302105BDF809BFBCF819BF9CF10921101109281
S1130220100180911001909111015FDFEFCFF894DC
S1050230FFCFFA
S11302323F065B4F666D7D077F6F777C395E797110
S9030000FC
