S01F000045696E646F706472616368745F3878385F6D61747269782E73726563F5
S113000045C0000060C000005EC000005CC000008D
S11300105AC000001CC1000036C1000052C10000DB
S113002070C1000050C000004EC000004CC0000071
S11300304AC0000048C0000046C0000044C00000A0
S113004042C0000040C000003EC000003CC00000B0
S11300503AC0000038C0000036C0000034C00000C0
S113006032C0000030C000002EC000002CC00000D0
S11300702AC0000028C0000026C0000024C00000E0
S113008022C0000020C000001EC0000011241FBEBA
S1130090CFEFD0E1DEBFCDBF12E0A0E0B1E0E8E6F3
S11300A0F5E000E00BBF02C007900D92A43AB1073F
S11300B0D9F722E0A4EAB2E001C01D92A63AB20741
S11300C0E1F73CD14FC29CCF1092710080E2809343
S11300D07000089584EA80937400E4E7F0E080817E
S11300E08823ECF708958093730084E88093740068
S11300F0E4E7F0E080818823ECF7089518161906E8
S11301006CF420E030E0EFECF7E03197F1F700C059
S113011000002F5F3F4F28173907A9F70895CF93A1
S1130120DF93D82FC62FD6DF80EEDDDF8D2F880F2B
S1130130DADF8C2FD8DF84E980937400DF91CF91CC
S11301400895CF93DF93C8E0D0E080E090E0E7DF4C
S11301502197D9F7DF91CF9108958F929F92AF9213
S1130160BF92CF92DF92EF92FF920F931F93CF93A0
S1130170DF934C01C0E0D0E0F40180813181F2E0F2
S11301808F0E911C282F932F990F990B6894AA24F2
S1130190A1F86894BB24B1F86894CC24C1F868949D
S11301A0DD24D1F86894EE24E1F8F12C00E010E0AD
S11301B0492F592F692F792F892F16D12071307229
S11301C04274547868707170AA24AA940F2EF3E0D4
S11301D0BF2EF02DC12CD12CE12C80E090E055D124
S11301E0622F732FCE019BDF2196C830D10521F6F3
S11301F0DF91CF911F910F91FF90EF90DF90CF90FF
S1130200BF90AF909F908F9008951F93CF93DF93EB
S113021061DF80EE68DF81E266DFC4E7D0E014E9E5
S1130220188358DF80EE5FDF80EA5DDF188352DFDA
S113023080EE59DF83EE57DF18834CDF80EE53DF07
S113024081E851DF1883DF91CF911F9108951F92A8
S11302500F920FB60F9211248F939F938091A40253
S11302609091A50201968A31910511F480E090E005
S11302709093A5028093A4029F918F910F900FBE3B
S11302800F901F9018951F920F920FB60F92112482
S11302902F938F939F938FEF89BB8091A4029091AA
S11302A0A502019710F489E190E09093A502809350
S11302B0A4029F918F912F910F900FBE0F901F90CA
S11302C018951F920F920FB60F9211242F933F93FC
S11302D08F939F93209102013091030181E090E07C
S11302E0232B11F080E090E09093030180930201AE
S11302F09F918F913F912F910F900FBE0F901F9060
S113030018951F920F920FB60F9211248F939F93FB
S11303108091000190910101019719F081E090E032
S113032002C08FEF9FEF90930101809300019F9192
S11303308F910F900FBE0F901F901895C5DE65DF4B
S1130340C9DE80EED0DE80E0CEDE80E0CCDE84E963
S11303508093740084EF91E0D1DEF3DE1BBA8FEF5B
S113036084BB15BA8AB7806F8ABF89B7806F89BF8B
S113037078948091A4029091A502C0E0D0E009E1B4
S113038010E08091020190910301892BF9F0809192
S1130390000190910101019711F4219607C0809109
S11303A0000190910101019609F42197CA31D10508
S11303B039F41092A5021092A402C0E0D0E006C065
S11303C0CF3F8FEFD80711F4C02FD12FCE018295E4
S11303D09295907F9827807F98278C5F9E4FBDDEF3
S11303E084EF91E08BDECDCFDF93CF931F930F93F8
S11303F09A9DF02D219FF00D8B9DF00D8A9DE02D8F
S1130400F10D039FF00D029FE00DF11D4E9DE00DD7
S1130410F11D5E9DF00D4F9DF00D7F936F93BF9284
S1130420AF925F934F93D5018ED08B01AC01D7016E
S11304308AD0EB01E80FF91FD6011FD02F913F910D
S1130440D60181D0C60FD71FE81FF91FAF91BF9106
S113045014D02F913F9177D0C60FD71FE81FF91FF3
S1130460D60171D0E60FF71F9801BE01CF01112408
S11304700F911F91CF91DF91089565D0460F571FBB
S1130480C81FD91F08F431960895689401C0E894F0
S11304908F929F92CF93DF9305D0DF91CF919F905E
S11304A08F90089588249924F401E401B0E49F9383
S11304B0AA279A158B049C04ED05FE05CF05D007E9
S11304C0A10798F4AD2FDC2FCF2FFE2FE92D982C08
S11304D0892E982F872F762F652F542F432F322F55
S11304E02227B85031F7BF9127C01B2EBF91BB27DD
S11304F0220F331F441F551F661F771F881F991F24
S1130500881C991CEE1FFF1FCC1FDD1FAA1FBB1FD9
S11305108A149B04EC05FD05CE05DF05A007B10791
S113052048F08A189B08EC09FD09CE09DF09A00BE5
S1130530B10B21601A94E1F62EF49401AF01BE01CF
S1130540CD01000C0895A29FB001B39FC001A39FE9
S1130550700D811D1124911DB29F700D811D1124F8
S10B0560911D0895F894FFCFEA
S11305680100010018002400240024003C00240099
S1130578240024003C00220022003C003C0022000D
S113058822003C003C002000200020002000200025
S113059820003C003C00220022002200220022000D
S11305A822003C003C00200020003C003C002000CD
S11305B820003C003C00200020003C0020002000DB
S11305C8200020003C002000200020002C002400F3
S11305D824003C002400240024003C003C002400A7
S11305E8240024003C001800180018001800180003
S11305F818003C003C00040004000400040004004B
S113060824001800220024002800300030002800AC
S113061824002200200020002000200020002000C8
S113062820003C0024005A005A005A0042004200AC
S11306384200420000002400240034002C0024005E
S1130648240024001800240024002400240024008A
S1130658240018003800240024003800200020005A
S113066820002000380044004400440044004C00AA
S11306783C00020078004400440078006000500008
S11306884800440000003C00200020003C00040016
S113069804003C00FE0010001000100010001000C0
S11306A81000100042004200420042004200420092
S11306B842007E0044004400440044006C002800CA
S11306C82800100044004400440054007C006C00DE
S11306D844000000880088005000200020005000DA
S11306E888008800820044002800100010001000D0
S11306F8100010007E000200040008001000200012
S107070840007E002B
S9030000FC
