S01F000045696E646F706472616368745F3878385F6D61747269782E73726563F5
S113000045C0000058C0000056C0000054C00000A5
S113001052C0000050C000004EC000004CC00000A0
S11300204AC0000048C0000046C0000044C00000B0
S113003042C0000040C000003EC000003CC00000C0
S11300403AC0000038C0000036C0000034C00000D0
S113005032C0000030C000002EC000002CC00000E0
S11300602AC0000028C0000026C0000024C00000F0
S113007022C0000020C000001EC000001CC0000000
S11300801AC0000018C0000016C0000011241FBED2
S1130090CFEFD0E1DEBFCDBF12E0A0E0B1E0E2EBF4
S11300A0F3E000E00BBF02C007900D92A03AB10745
S11300B0D9F762D17CC1A4CF1092710080E2809301
S11300C07000089584EA80937400E4E7F0E080818E
S11300D08823ECF708958093730084E88093740078
S11300E0E4E7F0E080818823ECF7089518161906F8
S11300F06CF420E030E0EFECF7E03197F1F700C06A
S113010000002F5F3F4F28173907A9F70895CF93B1
S1130110DF93D82FC62FD6DF80EEDDDF8D2F880F3B
S1130120DADF8C2FD8DF84E980937400DF91CF91DC
S11301300895CF93DF93C8E0D0E080E090E0E7DF5C
S11301402197D9F7DF91CF9108952F923F924F9243
S11301505F926F927F928F929F92AF92BF92CF9253
S1130160DF92EF92FF920F931F93CF93DF93CDB75C
S1130170DEB7C250D1400FB6F894DEBF0FBECDBF7C
S11301805B014A01E12CF12CC12CD12C20E030E0A0
S11301904EC0A801022E02C0559547950A94E2F775
S11301A0417055274D935D93AB01022E02C05595C6
S11301B047950A94E2F741705527419351932F5F75
S11301C03F4F2830310529F742E0C40ED11C58E0D6
S11301D0E50EF11C40E4E416F10449F5A401240100
S11301E0440C551C1814190414F4940102C020E0A2
S11301F030E087E090E03C01681879087401E21A65
S1130200F30AA12CB12CC12CD12C0F2EF7E02F2EE8
S1130210312CF02D8101041B150BAC01421B530B37
S1130220CF5FDE4F59834883C150D14059C0283035
S1130230310554F6FC01EC0DFD1D00811181F50121
S1130240EC0DFD1D60817181F901EE0DFF1DEE0FB6
S1130250FF1FA1E0B0E0AC0FBD1FAE0FBF1F41E810
S113026050E04C0F5D1FE40FF51F93CF21913191A6
S1130270082E02C0220F331F0A94E2F7622B732B5D
S113028001978017910791F702C060E070E016149F
S11302901704D4F4E1E8F0E0EC0FFD1FEA0DFB1DB8
S11302A0CF5FDE4F88819981C150D1402191319136
S11302B0082E02C0220F331F0A94E2F7622B732B1D
S11302C001978E159F0591F7C60121DF5FEFC51ACF
S11302D0D50A80E1A80EB11C98E0C916D10481F0BA
S11302E01814190494F6F501E40DF51D41E050E0ED
S11302F04C0F5D1FE40FF51FC10160E070E0B6CF45
S1130300CE5FDE4F0FB6F894DEBF0FBECDBFDF91D8
S1130310CF911F910F91FF90EF90DF90CF90BF90FE
S1130320AF909F908F907F906F905F904F903F9091
S11303302F9008951F93CF93DF93C4DE80EECBDE1E
S113034081E2C9DEC4E7D0E014E91883BBDE80EEA5
S1130350C2DE80EAC0DE1883B5DE80EEBCDE83EE4A
S1130360BADE1883AFDE80EEB6DE81E8B4DE188331
S1130370DF91CF911F9108959FDEDCDFA3DE80EE35
S1130380AADE80E0A8DE80E0A6DE84E98093740023
S113039084EF91E0ABDECDDE44E050E060E271E05A
S11303A080E191E0D2DE84EF91E0A0DEF5CFF89415
S10503B0FFCF79
S11303B218002400240024003C002400240024000B
S11303C23C00220022003C003C00220022003C00AF
S11303D23C002000200020002000200020003C00DF
S11303E23C002200220022002200220022003C00C3
S11303F23C00200020003C003C00200020003C0087
S11304023C00200020003C002000200020002000AE
S11304123C002000200020002C00240024003C008A
S11304222400240024003C003C0024002400240076
S11304323C001800180018001800180018003C00AE
S11304423C0004000400040004000400240018001A
S1130452220024002800300030002800240022005A
S113046220002000200020002000200020003C006A
S113047224005A005A005A0042004200420042003C
S113048200002400240034002C0024002400240052
S1130492180024002400240024002400240018004E
S11304A2380024002400380020002000200020000E
S11304B2380044004400440044004C003C00020064
S11304C27800440044007800600050004800440072
S11304D200003C00200020003C00040004003C001A
S11304E2FE00100010001000100010001000100098
S11304F242004200420042004200420042007E00AA
S113050244004400440044006C0028002800100009
S113051244004400440054007C006C004400000089
S113052288008800500020002000500088008800C5
S11305328200440028001000100010001000100077
S11305427E000200040008001000200040007E002B
S9030000FC
