S00F00005765656B3342312E73726563E3
S113000045C0000058C0000056C0000054C00000A5
S113001052C0000050C000004EC000004CC00000A0
S11300204AC0000048C0000046C0000044C00000B0
S113003042C0000040C000003EC000003CC00000C0
S11300403AC0000038C0000036C0000034C00000D0
S113005032C0000030C000002EC000002CC00000E0
S11300602AC0000028C0000026C0000024C00000F0
S113007022C0000020C000001EC000001CC0000000
S11300801AC0000018C0000016C0000011241FBED2
S1130090CFEFD0E1DEBFCDBF11E0A0E0B1E0E2EBF5
S11300A0F1E000E00BBF02C007900D92A830B10749
S11300B0D9F775D07CC0A4CFAB9A89EF90E00197B3
S11300C0F1F700C00000AB9889EF90E00197F1F7D9
S11300D000C000000895CF938FEF84BB15BAC0E22F
S11300E0C5BBEADFC5BBE8DF80E885BBE5DF15BA41
S11300F0E3DF80EF85BBE0DF15BADEDF80E685BB9A
S1130100DBDFCF910895CF93C82F85BBAA9AD4DFA4
S1130110C295C07FC5BBAA9ACFDFCF910895CF9374
S1130120DF93EC018881882329F02196ECDF899103
S11301308111FCCFDF91CF910895CF93C82F85BB58
S1130140AA98BADFC295C07FC5BBAA98B5DFCF9184
S113015008950F931F93CF93DF938C0180E8EDDF15
S113016010161106BCF4C0E0D0E0CF30D10541F048
S113017084E1E3DF81EE94E00197F1F700C0000031
S1130180219681EE94E00197F1F700C00000C017BA
S1130190D10759F7DF91CF911F910F9108959BDFFC
S11301A083E090E0D6DF80E091E0B9DFFFCFF89400
S10501B0FFCF7B
S10B01B2446974206973000024
S9030000FC
