:1000000045C0000058C0000056C0000054C00000A9
:1000100052C0000050C000004EC000004CC00000A4
:100020004AC0000048C0000046C0000044C00000B4
:1000300042C0000040C000003EC000003CC00000C4
:100040003AC0000038C0000036C0000034C00000D4
:1000500032C0000030C000002EC000002CC00000E4
:100060002AC0000028C0000026C0000024C00000F4
:1000700022C0000020C000001EC000001CC0000004
:100080001AC0000018C0000016C0000011241FBED6
:10009000CFEFD0E1DEBFCDBF11E0A0E0B1E0EAE9F3
:1000A000F1E000E00BBF02C007900D92A830B1074D
:1000B000D9F766D070C0A4CFAB9A89EF90E00197D2
:1000C000F1F700C00000AB9889EF90E00197F1F7DD
:1000D00000C000000895CF938FEF84BB15BAC0E233
:1000E000C5BBEADFC5BBE8DF80E885BBE5DF15BA45
:1000F000E3DF80EF85BBE0DF15BADEDF80E685BB9E
:10010000DBDFCF910895FF920F931F93CF93DF937F
:100110008C018FE085BBD0DF112394F0C0E0D0E0EC
:100120000F2EF4E1FF2EF02DF5BAC6DF8FE097E237
:100130000197F1F700C0000021960C171D07A4F7E6
:10014000DF91CF911F910F91FF900895CF93C82F0A
:1001500085BBAA9AB1DFC295C07FC5BBAA9AACDFA6
:10016000CF910895CF93DF93EC018881882329F004
:100170002196ECDF89918111FCCFDF91CF91089519
:10018000AADF80E091E0EEDF88E090E0BCDF84E071
:0A01900091E0E8DFFFCFF894FFCF05
:08019A00486F69004E6F000080
:00000001FF
